:020000040800F2
:10000000F806002055020008C71800086517000808
:10001000C518000845060008AD1C000800000000D7
:10002000000000000000000000000000451900086A
:100030004706000800000000C9180008471900081A
:100040006F0200086F0200086F0200086F020008CC
:100050006F0200086F0200086F0200086F020008BC
:100060006F0200086F0200086F0200086F020008AC
:100070006F0200086F0200086F0200086F0200089C
:100080006F0200086F0200086F0200086F0200088C
:100090006F0200086F0200086F0200086F0200087C
:1000A0006F0200086F0200086F0200086F0200086C
:1000B0006F0200086F0200086F0200086F0200085C
:1000C0006F0200086F0200086F0200086F0200084C
:1000D0006F020008A11C00086F0200086F020008F0
:1000E0006F0200086F0200086F0200086F0200082C
:1000F0006F0200086F0200086F0200086F0200081C
:100100006F0200086F0200086F0200086F0200080B
:100110006F0200086F0200086F0200086F020008FB
:100120006F0200086F0200086F0200086F020008EB
:100130006F0200086F0200086F0200086F020008DB
:100140006F0200086F0200086F0200086F020008CB
:100150006F0200086F0200086F0200086F020008BB
:100160006F0200086F0200086F0200086F020008AB
:100170006F0200086F0200086F0200080000000014
:100180006F0200086F0200086F0200086F0200088B
:100190006F0200086F0200086F0200086F0200087B
:1001A0006F0200086F0200086F02000800F002F8FA
:1001B00000F041F80AA090E8000C82448344AAF1C0
:1001C0000107DA4501D100F036F8AFF2090EBAE8BE
:1001D0000F0013F0010F18BFFB1A43F0010318477B
:1001E000341C0000541C0000103A24BF78C878C1A9
:1001F000FAD8520724BF30C830C144BF04680C602D
:10020000704700000023002400250026103A28BF74
:1002100078C1FBD8520728BF30C148BF0B60704778
:10022000642900F0EF80002070471FB501F0E0FD69
:100230001FBD10B510BD00F0D3F91146FFF7F5FF53
:1002400001F094FD00F0F1F903B4FFF7F2FF03BCF5
:1002500001F03DFD0948804709480047FEE7FEE7F9
:10026000FEE7FEE7FEE7FEE7FEE7FEE7FEE7FEE766
:1002700004480549054A064B70470000ED1900087F
:10028000AD010008F8000020F8060020F802002068
:10029000F8020020704753EA020C00F069802DE953
:1002A000F04B4FF00006002B1FBFB3FA83F503FAA3
:1002B00005F424FA05F65E4012BF1643B2FA82F541
:1002C00002FA05F4C5F120051EBF22FA05FC44EA36
:1002D0000C04203556EA044C4FEA144418BF641C41
:1002E0004FF000084FF00009904271EB030C39D336
:1002F000002919BFB1FA81F701FA07F6B0FA80F7C1
:1003000000FA07F6C7F120071EBF20FA07FC46EAED
:100310000C062037B6FBF4FCA7EB0507103F07F0EF
:100320001F0BCBF120060CFA0BFB2CFA06F644BF90
:10033000B3460026202FA4BF5E464FF0000B5BEAB9
:10034000060C08BF4FF0010B19EB0B09ABFB027C4D
:1003500048EB0608C01B06FB02CC0BFB03CC71EB81
:100360000C01C1E70B46024641464846BDE8F08B0A
:1003700013B54FF000004FF00001AFF30080BDE86F
:100380001C4070470FB4044910B503AA029800F04E
:10039000F9F810BC5DF814FB080000202DE9F041CD
:1003A0000E460446002020622046E168884730B3AC
:1003B000252805D0D4E901219047206A401CF2E7A6
:1003C000E168204600278847050018D0A5F14100C4
:1003D000192802D820354FF40067324629462046B6
:1003E0002760FFF71DFF40B1012804D0F61D26F05D
:1003F00007060836D8E7361DD6E72846DAE7206A2A
:10040000BDE8F0812DE9F041064600241068752909
:10041000314616A510D0AFF30080002802DA404222
:1004200013A507E031688A0701D512A502E0490744
:1004300004D511A5012401E0AFF3008000210A22B8
:1004400006F1240709E0B0FBF2FCB0FBF2F302FB7B
:100450001C00303078541846491C0028F3D123463C
:100460002A463046BDE8F04100F033B800000000F5
:100470002D0000002B000000200000004FF00002C3
:1004800000B5134694469646203922BFA0E80C508A
:10049000A0E80C50B1F12001BFF4F7AF090728BF65
:1004A000A0E80C5048BF0CC05DF804EB890028BFE1
:1004B00040F8042B08BF704748BF20F8022B11F00A
:1004C000804F18BF00F8012B704770477047704786
:1004D00070472DE9F0470D4699469246044600F1D3
:1004E00024080168880604D5E06921F01001216024
:1004F00000E00120A84201DD471B00E00027A169C0
:100500007A1902EB0900081AA0612078C00602D40B
:100510002046AFF30080002608E0D4E901211AF854
:1005200006009047206A401C761C20624E45F4DB92
:100530002078C0060AD52046AFF3008006E0D4E953
:10054000012130209047206A401C2062381EA7F10C
:100550000107F4DC07E0D4E9012118F80500904711
:10056000206A401C2062281EA5F10105F3DC20460C
:10057000AFF300802078000602D50220BDE8F087A6
:100580000120FBE7074B70B50D467B4400F011F8E6
:100590000446284600F020F810B14FF0FF3070BD3F
:1005A000204670BD4317000001694A1C02610878AB
:1005B000704700B58FB0CDE90131002105910549A3
:1005C0007944CDE9031011466846FFF7E7FE0FB006
:1005D00000BD0000E5FFFFFF007B00F080007047DA
:1005E000754600F02BF8AE4605006946534620F0EC
:1005F0000700854618B020B5FFF73AFEBDE8204059
:100600004FF000064FF000074FF000084FF0000BCE
:1006100021F00701AC46ACE8C009ACE8C009ACE881
:10062000C009ACE8C0098D46704710B50446AFF369
:1006300000802046BDE81040FFF706BE0048704726
:1006400094000020FEE7704772B6FEE7F0B5D1E9EE
:1006500007354C6A0A68C2B102682B4322F4F8429B
:10066000144323430360D1E901231A43D1E903343E
:1006700023431A434B6989691A430A4341686FF35C
:100680000E010A4342600020F0BDD1E90126324349
:10069000D1E903673E4332434E69896932430A43D5
:1006A0001A432A43016822436FF30E010A43026092
:1006B000E9E7426943F6FE739A4342EA4101416128
:1006C0000020704770B514460546D1E9000210437A
:1006D0008A686FF01F03C96803EB421242EA4121A6
:1006E000084329696FF315010843286100F052FAA5
:1006F000064609E0601C07D024B100F04BFA801BCD
:10070000A04201D9032070BDA8698006F2D4002060
:1007100070BD0000F0B56FF00F058C8A2E014FEA16
:10072000054ECB682F034FF07F4C0EEB04540AB3F9
:100730001A03A2F58052836822431D4C23401A43BA
:100740008260D1E9002305EB0313521E1A438B6824
:1007500006EB03231A430B8A097E07EB03431A4374
:100760000CEB01610A43C16801F070410A43C260A9
:100770000020F0BDD1E9002E05EB0E15521E2A43D4
:100780008D6806EB05252A430A4D05EB03331A4312
:100790000B8A097E07EB03431A4322430CEB0161EA
:1007A0000A43816801F070410A438260E0E700007B
:1007B000FF0F0FFF00F0FFFF2DE9F0410446876DAA
:1007C00000F0E8F9064694F835000025022806D026
:1007D0008020606584F834500120BDE8F0812068F5
:1007E000016821F0160101602068416921F0800153
:1007F0004161206C08B9A06C20B12068016821F02B
:10080000080101602068016821F0010101600CE02D
:1008100000F0C0F9801B052807D92020606503205F
:1008200084F8350084F83450D7E720680068C007A2
:10083000EED194F85C103F208840B860012084F825
:10084000350084F834500020C7E790F835100229AD
:1008500003D08021416501207047052180F83510C3
:100860000068016821F0010101600020704700006C
:1008700070B5044600F08EF90546601C02D00448AD
:100880000078044400F086F9401BA042FAD370BD02
:100890000C000020F0B587B014216846FFF7EEFD8C
:1008A00025480168002944D1012101602348002422
:1008B000016841F0010101600068022500F00100BB
:1008C00005904FF63F00CDE9000502AA03260C274C
:1008D00082E8D00069461A4800F03CF80D20CDE9C6
:1008E000000502AA694682E8D000164800F032F8F6
:1008F00048F23710CDE9000502AA694682E8D00027
:10090000114800F027F84FF68370CDE9000502AAE0
:10091000694682E8D0000D4800F01CF84CF20370E4
:10092000CDE9000502AA694682E8D000084800F037
:1009300011F807B0F0BD0000000000203838024078
:10094000001402400008024000180240001002405B
:10095000000C02402DE9F84FDFF8F8A10022012435
:1009600003254FF00F090AF1040BAAF1040E00BF92
:100970000B6804FA02F63340B34270D10F7907F0E6
:100980000307012F01D0022F16D187684FEA4208D2
:1009900005FA08FC27EA0C07D1F80CC00CFA08FC91
:1009A0004CEA070CC0F808C04768B7430E79C6F395
:1009B000001696403E4346600E79F643B6070AD0CD
:1009C000C7684FEA420C05FA0CF6B7438E6806FA80
:1009D0000CF63E43C6600E7906F00306022E10D1D7
:1009E000D60800EB8608D8F8206057074FEAD76C86
:1009F00009FA0CF7BE430F6907FA0CF73743C8F83A
:100A0000207006684FEA420C05FA0CF7BE430F79D6
:100A100007F0030707FA0CF7374307604E6816F430
:100A2000403F1CD04C4E376847F4804737603668EB
:100A300022F0030706F480460096484E07EB060CAA
:100A4000DCF8086897073F0F09FA07F826EA080656
:100A5000DFF80C81404503D14FF0000841E072E01F
:100A6000DFF80081404502D14FF0010839E0DFF89E
:100A7000F880404502D14FF0020832E0DFF8EC8008
:100A8000404502D14FF003082BE0DFF8E4804045F9
:100A900002D14FF0040824E0DFF8D880404502D1AD
:100AA0004FF005081DE0DFF8D080404502D14FF03F
:100AB000060816E0DFF8C480404502D14FF0070871
:100AC0000FE0DFF8BC80404502D14FF0080808E095
:100AD000DFF8B080404502D14FF0090801E04FF047
:100AE0000A0808FA07F848EA0608CCF80888DAF88D
:100AF00000605746D1F804C09E435FEACC2C00D575
:100B00001E433E60DBF800605F46D1F804C09E43A0
:100B10005FEA8C2C00D51E433E60DEF8006077460D
:100B2000D1F804C09E435FEA8C3C00D51E433E6072
:100B3000084F083F3E68D1F804C09E435FEACC3CB2
:100B400000D51E433E60521C102AFFF411AFBDE8D1
:100B5000F88F0000083C014044380240003001405A
:100B6000000002400004024000080240000C024065
:100B7000001002400014024000180240001C024015
:100B800000200240002402400AB18161704709043C
:100B9000FBE7000001488068704700000C0000205F
:100BA0000248816802781144816070470C0000207F
:100BB0000B4810B5016841F400710160016841F40F
:100BC00080610160016841F480710160032000F0E0
:100BD0006FF80F2000F006F800F024F8002010BD98
:100BE000003C024070B50D4D04464FF47A712878F0
:100BF000B1FBF0F00A490968B1FBF0F000F09CFB92
:100C000048B9102C07D200222146501E00F030F8BF
:100C100000206C6070BD012070BD00000C00002041
:100C2000180000200A4808B5016841F480410160BD
:100C3000006800F4804000900548001F016841F002
:100C400080510160006800F08050009008BD0000F5
:100C500044380240002809DB00F01F0201219140C6
:100C60004009800000F1E020C0F80011704700004A
:100C7000F0B40E4B1B680C46C3F30223C3F1070507
:100C8000042D00D90425191D072901D2002300E0F5
:100C9000DB1E012606FA05F1491E214099409E40BF
:100CA000761E16403143F0BC01F001B80CED00E0B7
:100CB000064900F0070208684FF6FF03184040EAB3
:100CC0000220034A10430860704700000CED00E06A
:100CD0000000FA052DE9F8431748016841F08051FA
:100CE00001600068154F00F08050012600903E64BE
:100CF000FFF750FF05464FF47A78114C05E000BF2E
:100D0000FFF748FF401B40450DD86068C003F7D58A
:100D10007E64FFF73FFF0546464607E0FFF73AFFD0
:100D2000401BB04202D90320BDE8F883606880030D
:100D3000F4D50020F8E700004038024000000E42E1
:100D4000007000402DE9F0470E46050065D0DFF841
:100D50001481D8F80000F7B200F00F00B04207D2BB
:100D600088F80070D8F8000000F00F00B04254D1AD
:100D700028683D4C810712D5400703D5206840F410
:100D8000E05020602878000703D5206840F46040D8
:100D900020602068A96820F0F000084320602878CF
:100DA000C0072DD0304968680839012812D00228C0
:100DB00013D0032811D00968890700292DDA21688A
:100DC00021F0030101432160FFF7E4FE814641F277
:100DD000883A0EE009688903EFE709688901ECE7C2
:100DE000FFF7D8FEA0EB0901514502D90320BDE869
:100DF000F0872068696800F00C00B0EB810FEFD13C
:100E0000D8F80010404601F00F01B14207D9077031
:100E1000006800F00F00B04201D00120E7E7287819
:100E2000400705D52068E96820F4E05008432060B9
:100E30002878000706D52068296920F4604040EA38
:100E4000C100206000F038F82168084AC1F303119E
:100E5000515CC8400649086006480068FFF7C2FEBA
:100E60000020C4E7003C024008380240FA1D000898
:100E70001800002010000020044805490068096897
:100E8000044AC1F38221515CC84070471800002019
:100E9000083802400A1E000804480549006809682D
:100EA000044AC1F34231515CC84070471800002029
:100EB000083802400A1E0008154810B5006810F0F6
:100EC0000C02144813D01449042A0FD0082A0ED15A
:100ED0000F4C241F2268236802F03F025B0207D5F3
:100EE0002068C0F38810A0FB010106E0084610BD91
:100EF0002168C1F38811A1FB00010023FFF7CBF9A2
:100F00002168C1F30141491C4900B0FBF1F010BD5B
:100F1000083802400024F40040787D012DE9F84FA4
:100F200004006ED02078DFF84C93C007A9F10405C7
:100F30004AD009F104000168C1F38101012908D0F8
:100F40000068C0F3810002280AD1D9F800004002ED
:100F500006D52868800337D560680028E1D033E0E3
:100F60006068B0F5803F10D0B0F5A02F286810D091
:100F700020F480302860286820F480202860606891
:100F8000A8B1FFF707FE06460DE0286840F4803060
:100F9000F4E740F480202860F7E700BFFFF7FAFD90
:100FA000801B642873D828688003F7D50CE0FFF70E
:100FB000F1FD064605E000BFFFF7ECFD801B64284D
:100FC000F0D828688003F7D42078DFF8AC82800757
:100FD0004FF0000A3ED5A748001D016811F00C0F24
:100FE00008D00068C0F3810002280BD1D9F80000B6
:100FF000400207D42868800716D5E068012800D190
:1010000012E033E1E068B8B10120C8F80000FFF752
:10101000C1FD064605E000BFFFF7BCFD801B0228AE
:10102000C0D828688007F7D52868216920F0F80023
:1010300040EAC10028600DE0C8F800A0FFF7AAFD53
:10104000064604E0FFF7A6FD801B02281FD828688B
:101050008007F7D42078000722D5864F874861693A
:10106000703771B101210160FFF794FD064604E07D
:10107000FFF790FD801B022809D838688007F7D554
:101080000EE0C0F800A0FFF785FD064605E082E00F
:10109000FFF780FD801B02287DD838688007F7D4D1
:1010A0002078400768D5DFF8CCB100270BF13C0B66
:1010B000DBF80000C0000BD4DBF8001041F08051D9
:1010C000CBF80010DBF80000012700F08050009002
:1010D0006B4E3068C00510D4306840F480703060CA
:1010E000FFF758FD009005E0FFF754FD0099401A06
:1010F000022850D83068C005F6D55E4EA0686C3620
:1011000001280FD00528306810D020F00100306091
:10111000306820F004003060A068B8B1FFF73AFDF5
:1011200000900FE0306840F00100F4E740F0040068
:101130003060F7E7FFF72EFD0099411A41F2883041
:10114000814266D830688007F4D50EE0FFF722FDB3
:10115000009007E0FFF71EFD0099411A41F2883028
:10116000814256D830688007F4D42FB1DBF80010E4
:1011700021F08051CBF80010A069C8B33D49091D8A
:101180000968C1F3810102294AD00228504607D0DC
:10119000C8F8600000E03CE0FFF7FCFC04463BE0E0
:1011A0004746C8F86000FFF7F5FC064605E000BFBB
:1011B000FFF7F0FC801B02282BD828688001F7D4A9
:1011C000D4E907010843A16A2E4A490802EB01410C
:1011D000626A41EA8211084394F82C1040EA0161E6
:1011E000C9F8001001203866FFF7D4FC044606E079
:1011F0003EE000BFFFF7CEFC001B022809D828689C
:101200008001F7D534E000BFFFF7C4FC001B0228C3
:1012100002D90320BDE8F88F28688001F4D427E0C4
:101220000128F7D0D9F80000E26900F4800191426A
:101230001CD1226A00F03F01914217D147F6C071DC
:10124000626A0140B1EB821F10D1A26A4FF0FF33F6
:1012500000F4403103EB5202B1EB024F06D194F897
:101260002C1000F07060B0EB016F01D00120D1E7CD
:101270000020CFE70438024000004742800E47427A
:10128000007000400000FFFF70B50D46040003D061
:1012900094F82C0010B107E0012070BD002084F804
:1012A0002D00204600F011F8022084F82C00211DAA
:1012B0002068FFF7CBF9D4E900022946FFF72AFAA4
:1012C000012084F82C00002070BDFFF7E3BA10B5B0
:1012D000044690F82C00022804D094F82C00012831
:1012E00001D0012010BD022084F82C002068FFF7F7
:1012F000E0F9012084F82C00002010BD70B50446F0
:1013000090F82C000D46022804D0012803D00528AF
:1013100001D0012070BD022084F82C002068FFF766
:10132000D1F92868022805D05FF0010084F82C006C
:10133000002070BD0520F9E710B5401EB0F1807F98
:1013400001D3012010BD4FF0E02460610F21601730
:1013500000F0ADFC0020A06107202061002010BD3E
:1013600070477047F8B5016804460868CA684B6959
:1013700010F00F0F4FF000055AD003F0010602F4F1
:101380009077374365D0C10705D0D10503D5216CCF
:1013900041F001012164410705D5D90703D0216C33
:1013A00041F002012164810705D5D90703D0216CE2
:1013B00041F004012164010707D502F02001314307
:1013C00003D0216C41F008012164216C00293BD03D
:1013D000800604D5900602D5204600F03EFB20682A
:1013E0004069216CC0F3801001F0080101432046E0
:1013F0002BD000F00BFB20684069400621D5206807
:10140000143050E8001F21F0400140E80012002A8B
:10141000F5D1A06BA8B16C490165A06BFFF715FA77
:10142000002811D0A06B016D01B0BDE8F040084765
:1014300083060ED593060CD52046BDE8F84000F093
:101440000CBB2046FFF78DFFF8BDFFF78AFF256430
:10145000F8BD266B2023012E79D1C60677D5D60696
:1014600075D50868486800904869400640D5A16B6A
:10147000086840680004000CEAD0A28D8242E7D9D7
:10148000E085C869B0F5807F2DD020680C3050E829
:10149000001F21F4807140E80012002AF5D1206875
:1014A000143050E8001F21F0010140E80012002A2A
:1014B000F5D12068143050E8001F21F0400140E8C9
:1014C0000012002AF5D184F83E30256320680C30E4
:1014D00050E8001F21F0100140E80012002AF5D169
:1014E000A06BFFF769F9A08DE18D401A81B229E068
:1014F000A08DE18D401A81B2E08D0028A8D000298E
:10150000A6D020680C3050E8002F22F4907240E8FA
:101510000026002EF5D12068143050E8002F22F06C
:10152000010240E80026002EF5D184F83E30256304
:1015300020680C3050E8002F22F0100240E8002311
:10154000002BF5D12046FFF70BFFF8BDFFE705069E
:101550002BD5150629D594F83D002128F5D1A06892
:10156000B0F5805F01D12069B0B1206A411C2162D1
:10157000216800784860E08C401E0004000CE08484
:10158000E3D12068C16821F08001C1602068C16892
:1015900041F04001C160D8E7206A0088C0F308002C
:1015A0004860206A801C2062E5E74006CDD55006E1
:1015B000CBD5CA68204622F04002CA6084F83D308C
:1015C00000F0CFF8C1E70000FD19000870B5040075
:1015D00004D094F83D00002510B106E0012070BD54
:1015E00084F83C50204600F023F8242084F83D0085
:1015F0002068C16821F40051C160204600F08EFAD5
:101600002068016921F4904101612068416921F05D
:101610002A0141612068C16841F40051C16025641C
:10162000202084F83D0084F83E00002070BD0000BA
:1016300010B586B0044614216846FEF71FFF18490E
:101640002068884229D117480021026842F0100220
:101650000260006800F0100005901248143802681B
:1016600042F001020260006800F0010005904FF4B2
:10167000C06000900220CDE9010103200390072003
:10168000049069460848FFF765F9002211462520B5
:10169000FFF7EEFA2520FFF7DDFA06B010BD0000D7
:1016A0000010014044380240000002407047000032
:1016B0002DE9F843044690F83D001F4616460D46B6
:1016C00020284CD1C5B1BEB194F83C00012846D0C9
:1016D000012084F83C004FF00008C4F8408021202D
:1016E00084F83D00FFF756FAA6848146E684A06898
:1016F000B0F5805F03D004E00120BDE8F8832069E5
:1017000028B12E465FF0000584F83C800EE00026EC
:10171000FAE78021204600F087FAA0B9AEB116F8AA
:10172000010B21684860E08C401EE084E08C4B4651
:101730004FF0000200970028EBD14FF04001204607
:1017400000F072FA30B10320D7E735F8020BC0F38E
:101750000800E6E7202084F83D000020CDE70220C5
:10176000CBE77047FEE7000000B587B01C21684654
:10177000FEF784FE15481449012201600021C0E9EA
:10178000011208221023C0E90323402343615301BF
:10179000C0E90631130203625302C0E90931022095
:1017A00006210090CDE9012103910421CDE9041027
:1017B000069069460548FFF767FD08B1FEF744FF4C
:1017C00000F084F807B000BD400100A01C0000201C
:1017D00030B587B014216846FEF750FE2948002432
:1017E000016841F020010160016801F020010591CC
:1017F000016841F080010160016801F080010591FC
:10180000016841F004010160016801F004010591E3
:10181000016841F002010160016801F002010591D7
:10182000016841F040010160016801F0400105914B
:10183000016841F010010160016801F0100105919B
:10184000016841F008010160016801F0080105919B
:10185000016841F00101016000680B4D00F00100DA
:101860000590002203212846FFF78EF9012103206D
:10187000CDE90214CDE9000169462846FFF76AF870
:1018800007B030BD30380240000402400C4810B5AB
:101890000A4901604FF4E1314160002181600C226E
:1018A000C160C0E904128161C161FFF78FFE0028A9
:1018B00003D0BDE81040FEF7C7BE10BD00100140C8
:1018C00050000020FEE7FEE7704700002DE9FF41D1
:1018D00001240026CDE9024610254FF6FF78CDE918
:1018E0000045424669461648FFF708FD0120FEF70D
:1018F000BFFF0220CDE90005CDE902464246694618
:101900000F48FFF7FBFC0320042703968DE8A10096
:10191000424669460A48FFF7F1FC4FF40870CDE9EA
:101920000240CDE90075424669460548FFF7E6FCEE
:1019300040F2F9210248FFF7CAFCBDE8FF81000030
:101940001C0000207047FFF72BB9000030B593B0A2
:1019500030216846FEF792FD14210CA8FEF78EFD9B
:1019600020480025016841F080510160006800F0C6
:10197000805011901C48016841F4404101600068AA
:10198000022400F4404011900120039010200490A4
:10199000009406940820CDE90750B420CDE909044D
:1019A00004200B906846FFF7B9FA08B172B6FEE75B
:1019B000FFF790F908B172B6FEE70CA90F2081E895
:1019C00031004FF4A0500F904FF48050109005213B
:1019D0000CA8FFF7B7F9002801D072B6FEE713B0E4
:1019E00030BD0000403802400070004002480168ED
:1019F00041F470010160704788ED00E010B5806B24
:101A00000021C185C184FFF7ACFC10BD01680C3119
:101A100051E8002F22F4907241E80023002BF5D109
:101A20000168143151E8002F22F0010241E800233F
:101A3000002BF5D1016B012909D101680C3151E866
:101A4000002F22F0100241E80023002BF5D12021C5
:101A500080F83E1000210163704708B590F83E10F1
:101A6000222901D0022008BD82684FF480539A4297
:101A700001D1016921B1816A9A421BD04AB10AE0C1
:101A80000268816A5268C2F308020A80816A891C6E
:101A900008E0026972B10268526802F07F020A70BF
:101AA000816A491C8162C18D491E0904090CC185E6
:101AB00003D019E002685268F1E70168CA6822F0B1
:101AC0002002CA600168CA6822F48072CA60016894
:101AD0004A6922F001024A61202180F83E10016B20
:101AE000012903D0FFF7E2FD002008BD00210163BA
:101AF00001680C3151E8002F22F0100241E8002368
:101B0000002BF5D101680A68D20602D50A68496837
:101B10000091818DFFF724FCE6E7000070B50446D4
:101B200000680169E26821F44051114301612169B3
:101B3000A068E26908436169114308432168CA68E3
:101B400049F20C639A430243CA6020684169A26962
:101B500021F440711143416131492068884202D02B
:101B60003049884202D1FFF797F901E0FFF784F985
:101B7000E2690023192164253226B2F5004F62681C
:101B800028D0A0FB0101930F9200FEF784FB0146D1
:101B9000B0FBF5F06FF01802504301EB800006EB4C
:101BA0000010B0FBF5F000F0F002B1FBF5F002EB35
:101BB0000012B1FBF5F06FF01803584301EB800001
:101BC00006EB0010B0FBF5F000F00F0021681044A8
:101BD000886070BDA0FB010192185B41FEF75BFBC2
:101BE0000146B0FBF5F00201B1FBF5F06FF0180310
:101BF000584301EB800006EBC000B0FBF5F000F0AD
:101C0000F80002EB4002B1FBF5F0584301EB800015
:101C100006EBC000B0FBF5F000F00700D6E70000CF
:101C200000100140001401402DE9F041984617468C
:101C30000E460446069D27E0681C25D02DB1FEF710
:101C4000A9FFA0EB0800A8421ED920680C3050E87C
:101C5000001F21F4D07140E80012002AF5D120685D
:101C6000143050E8001F21F0010140E80012002A62
:101C7000F5D1202084F83D0084F83E00002084F84F
:101C80003C000320BDE8F0812068006836EA0000CF
:101C900004D00020B842CFD00020F3E70120F9E7BC
:101CA0000148FFF75FBB000050000020FEE7090776
:101CB000090E002804DB00F1E02080F800147047D2
:101CC00000F00F0000F1E02080F8141D704770470D
:101CD00013B54FF6FF73012269460248FFF7E8FC8F
:101CE00000981CBD500000203EB5002001900090DF
:101CF0004FF00074CDF80800DDE90021A1F180412A
:101D00000A600099491C0091019901F580410191F7
:101D1000A142F1D3CDF80400A0F18040006800900A
:101D200001980028009812D0029988420ED9029991
:101D30000098401A401C0004010B06A0FEF722FB8D
:101D4000019800F580400190A042E5D33EBD02908D
:101D5000EDE70000534452414D20436170616369D7
:101D600074793A25644B420D0A000000FEF720FF0B
:101D7000FFF7ECFDFFF72CFDFFF788FDFFF7F4FC04
:101D8000134C012202212046FEF7FEFE01221146DD
:101D90002046FEF7F9FE0F4D0F4E002025F81000EB
:101DA000401CB042FAD34FF4FA642046FEF760FDBF
:101DB000FFF79AFF2046FEF75BFD0024214635F829
:101DC000142006A0FEF7DEFA641CB442F6D3FEE748
:101DD00000040240000000C090D0030074657374DA
:101DE0007372616D5B25645D3A25640D0A00000025
:101DF0004FF04070E1EE100A704700000000000054
:101E000000000102030406070809000000000102A7
:101E100003040000341E0008000000201C00000025
:101E2000E8010008501E00081C000020DC0600002D
:101E30000402000800000000000000000000000094
:101E40000100000010000000000000000024F40069
:04000005080001AD41
:00000001FF
